:100000004FC073C072C071C070C06FC06EC06DC091
:100010006CC06BC06AC0E3C714C867C066C065C067
:1000200064C063C062C01E90076AFF001E91086230
:10003000DFFF1E920662DFFF1E930B62DFFF1E9141
:100040000B62DFFF1E920762DFFF1E930C62DFFF71
:100050001E920562DFFF1E920A62DFFF1E9307E118
:10006000D9FF1E930A62DFF91E930F62DFF91E9417
:1000700003E199FF1E940662DFF91E940B62DFF91B
:100080001E9502E199FF1E951462D9FF1E950F621D
:10009000D9FF1E951662DFF7000000000000460839
:1000A00011241FBECFE5D4E0DEBFCDBF10E0A0E637
:1000B000B0E0ECE6FBE102C005900D92AA3DB1076D
:1000C000D9F721E0AAEDB0E001C01D92AF38B20728
:1000D000E1F710E0C0E5D0E003C02197FE01D0DADF
:1000E000CF34D107D1F7B2D43FCD8ACF8DEE84BBC8
:1000F00085B3836085BB8CEF81BB12BA8FEF87BB62
:1001000018BA089582B38F7082BBAA98AD9A82B351
:100110008C6082BB8FEC97E00197F1F700C0000084
:10012000A8988FEC97E00197F1F700C000000895C0
:10013000A89A85B38B7D85BB82B3837082BB18BAC6
:100140000895AB9A8DE08A95F1F70000AB988DE0A9
:100150008A95F1F700000895969A92B39F7C92BB1E
:1001600088BBEFCF92B39F7892BB88BBEACF92B3A4
:100170009F7992BB949A88BBE4CF959A92B39F7A69
:1001800092BB88BBDECF0F931F93CF93DF93BADF71
:100190000BEE10E0C0E0DFEF88E0DEDF8C2FE2DF67
:1001A00017BA82B38B7E82BB8DE08A95F1F700008F
:1001B00086B3F80181938F01929AD7BBCF5FC3308A
:1001C00059F79C9BFECFB4DF3091EB004091EC00DF
:1001D0005091ED0020E066E0269FC0011124FC0153
:1001E000EA5DFF4F7491772389F0E4913E130CC0D0
:1001F000FC01E95DFF4FE4914E1306C0FC01E85D90
:10020000FF4FE4915E1741F02F5FE6CF80E0DF9172
:10021000CF911F910F91089581E0F9CF73DF84E0B2
:100220009BDF17BAE7EEF0E080E08230F9F0833030
:1002300009F1813029F092B39B7E92BBAA9803C04A
:100240009298949AAA9A9DE09A95F1F7000096B335
:1002500091939AE19A95F1F700C08F5F843029F766
:10026000929A8FEF87BB9C9BFECF62CF92B39B7E0F
:1002700092BBE8CF9298949AE1CF44DF80E86CDF9C
:1002800093988DE08A95F1F70000939A9C9BFECF9E
:100290004FCFCF93DF93EC0182E05EDF8D2F869509
:1002A00066DFCE01969587955DDF17BA92982AE1B1
:1002B0002A95F1F700C0949A96B38AE18A95F1F7EE
:1002C00000C0949886B3929A2FEF27BBC0FF892F66
:1002D000DF91CF9108953091EB004091EC00509167
:1002E000ED0020E066E0269FC0011124FC01EA5DDC
:1002F000FF4F7491772329F1E4913E1320C0FC0154
:10030000E95DFF4FE4914E131AC0FC01E85DFF4F19
:10031000E4915E1314C0FC01E75DFF4FE491E093AC
:10032000E400FC01E65DFF4FE491E093E500FC0191
:10033000E55DFF4FE491E093E60081E008952F5FD3
:10034000D2CF80E00895CF93C82FC5DF882331F145
:10035000D9DE80E401DFEC2FF0E0EF51FF4F808128
:100360000CDFCC2321F0C13081F4949AAA989398A1
:100370008DE08A95F1F70000939A87EC90E0019761
:10038000F1F700C00000CF91D3CEC230E1F78091E9
:10039000E3008823C1F39498AA9AE9CFCF910895F6
:1003A000F2DE811102C080E027C095DF8091E40079
:1003B0008093E10080E0C7DF8091E5008093E20058
:1003C00081E0C1DF8091E6008093E30082E0BBDF43
:1003D00025DF9091E7008091E4009813E4CF90919D
:1003E000E8008091E5009813DECF81E02091E900DC
:1003F0009091E6002913D7CF089581B38C6181BB1A
:1004000084B3896284BB82B3837E82BBA89A85B39E
:10041000877D85BB2FE788E391E0215080409040A5
:10042000E1F700C00000AD9A20EA2A95F1F7A898FC
:1004300085E38A95F1F700008A9887E592E00197B5
:10044000F1F700C00000089582B3877E82BBAB98AD
:10045000A89A8AE18A95F1F700C0AD980895AB9A01
:100460008DE08A95F1F70000AB9808950F931F93E4
:10047000CF93DF93082F162F82B3877E82BBEFDFE7
:10048000D8E0C0E0CC0F8299C16007FF14C0949AF5
:1004900017FF13C0939AE3DF000F110FD15091F7AC
:1004A00082B3877E82BBDBDFDADF8C2FDF91CF91D7
:1004B0001F910F9108959498EBCF9398ECCF829B66
:1004C000FECF08950F931F93CF9397DF0BEE10E0AD
:1004D000C0E06CE488E0CADF6CE08C2FC7DF68E620
:1004E00080E0C4DF6CE680E0C1DFF80181938F011A
:1004F000FAE1FA95F1F700C0CF5FC33051F7A4DFFE
:100500003091EB004091EC005091ED0020E066E06E
:10051000269FC0011124FC01EA5DFF4F74917723EF
:1005200089F0E4913E130CC0FC01E95DFF4FE491BA
:100530004E1306C0FC01E85DFF4FE4915E1739F0F1
:100540002F5FE6CF80E0CF911F910F91089581E05A
:10055000FACFCF93DF93B6DFC82F882309F471C099
:10056000BADE4BDF6CE484E081DF68E680E07EDFAA
:100570006CE680E07BDF8093E7006CE484E076DF6C
:100580006AE780E073DF6EE780E070DF8093E80069
:100590008091E600882309F44BC06CE484E066DFB8
:1005A0006AE680E063DF6EE680E060DF8093E9006A
:1005B0006CE484E05BDF68E780E058DF6CE780E0B4
:1005C00055DF8093EA0040DF6091EB007091EC0012
:1005D000A091ED003091E4002091E5005091E600FB
:1005E00040E0B6E04B9FC0011124FC01EA5DFF4FE3
:1005F000D491DD2301F1E4916E1318C0FC01E95D93
:10060000FF4FE4917E1312C0FC01E85DFF4FE491BF
:10061000AE130CC0FC01E75DFF4F3491FC01E65DB9
:10062000FF4F2491FC01E55DFF4F54914F5FDACFFE
:100630001092E900BDCF3093E4002093E500509381
:10064000E6008C2FDF91CF910895CF93C82F6CE4F3
:1006500080E40CDF6CE28C2F09DF64E680E006DFCB
:100660006CE680E003DF2BDF6CE480E0FFDECF91FF
:1006700026CFCF9327DF8823C9F12DDEBEDE809100
:10068000E4009091E7009813E0DFC091E5008091CD
:10069000E8008C1789F06CE480E4E8DE6CE28C2FD3
:1006A000E5DE64E780E0E2DE6CE780E0DFDE07DFC6
:1006B0006CE480E0DBDE03DFC091E600CC23A9F030
:1006C0008091E900C81789F06CE480E4CFDE6CE229
:1006D0008C2FCCDE66E680E0C9DE6EE680E0C6DE0A
:1006E000EEDE6CE480E0C2DEEADEAEDE32DF909168
:1006F000E7008091E40098130CC09091E80080918D
:10070000E500981306C081E02091E9009091E60091
:10071000291380E0CF9108951F93CF93DF93EC01CD
:100720006CE482E0A3DECE01969587956CE09EDEB8
:100730006CE18D2F86959ADE68E680E097DE6CE6A8
:1007400080E094DE182F68E780E090DE6CE780E0C0
:100750008DDED82F6CE480E089DEB1DEC0FFD12FC2
:100760008D2FDF91CF911F9108958091DA00813014
:1007700011F483DD15CE823089F43FDE6CE480E82D
:1007800075DE64E680E072DE6CE680E06FDE97DEA8
:100790006CE480E06BDE93DE57DE6BCF0895CF9381
:1007A000DF93C7EED0E08991803138F44AE050E021
:1007B00070E060E08EEE90E085D540E150E0FE0113
:1007C000319760818EEE90E08FD580E0CB3ED807E8
:1007D00051F78EEE90E0DF91CF91CDC48F929F9232
:1007E000AF92BF92CF92DF92EF92FF921F93CF937F
:1007F000DF938091DD00C12CD82EDD0CDD0CF12CB7
:10080000E12C81E0C81AD108E108F1088091DA00F2
:100810008130A9F577DC812C912C5401E4012196DB
:10082000C40137DD182F803138F44AE050E070E021
:1008300060E08EEE90E046D540E150E0612F8EEE14
:1008400090E052D5CF70DD27CD2B19F48EEE90E0DD
:1008500092D48FEF881A980AA80AB80AC814D90443
:10086000EA04FB04D8F6DF91CF911F91FF90EF903F
:10087000DF90CF90BF90AF909F908F9059CC8230F7
:10088000A9F5BBDD812C912C5401E4012196C40112
:1008900043DF182F803138F44AE050E070E060E028
:1008A0008EEE90E00FD540E150E0612F8EEE90E0AB
:1008B0001BD5CF70DD27CD2B19F48EEE90E05BD4E5
:1008C0008FEF881A980AA80AB80AC814D904EA044B
:1008D000FB04D8F6DF91CF911F91FF90EF90DF904E
:1008E000CF90BF90AF909F908F90AECDDF91CF9182
:1008F0001F91FF90EF90DF90CF90BF90AF909F90AF
:100900008F900895BF92CF92DF92EF92FF920F9354
:100910001F93CF93DF9300D000D000D0CDB7DEB7C8
:1009200068ED70E0CE0101965ED58091DA008130ED
:1009300009F046C0E7DBC12CD12C76018091DB00A9
:100940009091DC00B0E0A0E08C159D05AE05BF05E0
:1009500018F186010F5F1F4FC6019BDCB82E8FE098
:100960008B1538F04AE050E070E060E08EEE90E0E9
:10097000A9D440E150E06B2D8EEE90E0B5D40F701D
:100980001127012B19F48EEE90E0F5D38FEFC81AE2
:10099000D80AE80AF80AD2CFCBDBCE010196BBD445
:1009A00026960FB6F894DEBF0FBECDBFDF91CF9174
:1009B0001F910F91FF90EF90DF90CF90BF9008951F
:1009C000823059F71ADD8EEE90E0FAD1892BD9F3F7
:1009D0008EEE90E00FD28A30B1F3682FCE010196EF
:1009E0009CD5F1CF8091DA00882351F140E150E0AD
:1009F0006091EB008EEE90E077D48091EC00803136
:100A000028F46BE670E08EEE90E0A7D340E150E072
:100A10006091EC008EEE90E067D48091ED00803123
:100A200028F46BE670E08EEE90E097D340E150E062
:100A30006091ED008EEE90E05DD48EEE90E00FC2FE
:100A400066E670E08EEE90E099D3F7CFCF93DF9318
:100A5000CDB7DEB7A4970FB6F894DEBF0FBECDBFFB
:100A6000789426E040E950ED63E070E08EEE90E08F
:100A70005BD26DE670E08EEE90E080D301E036DB75
:100A800068ED70E0CE014F96AED469E770E0CE011C
:100A90004996A9D468ED70E0CE014396A4D468EDE0
:100AA00070E0CE010D969FD468ED70E0CE01079600
:100AB0009AD466E170E0CE0149965BD410E0999B30
:100AC00002C0112391F12FE788E391E0215080408B
:100AD0009040E1F700C0000081E010E0999902C069
:100AE000811132C029E030E042E050E0BE01675E93
:100AF0007F4FCE0101963FD5BE016F5F7F4FCE0184
:100B00004396C9D4CE01019606D4CE01439677D53B
:100B10006CE770E0CE01439612D5882341F111E0D5
:100B200099995FC00000FCCF11E08EEE90E048D1B3
:100B3000892B29F28EEE90E05DD18A30A9F3682FDF
:100B4000CE014996EAD4F1CFEFE5FAEE3197F1F70D
:100B500000C000001F5F133308F4C0CFAD9AAB9AFA
:100B600064E870E0CE014996A1D480E0B7CF6EE88A
:100B700070E0CE014396E3D48111D1CF66E970E0F5
:100B8000CE014396DCD413E08111CACF6EE970E048
:100B9000CE014396D4D414E08111C2CF66EA70E04E
:100BA000CE014396CCD415E08111BACF6EEA70E045
:100BB000CE014396C4D416E08111B2CF66EB70E04B
:100BC000CE014396BCD417E08111AACF6EEB70E042
:100BD000CE014396B4D410E0882309F4A1CF18E0E5
:100BE0009FCFFFE728E381E0F15020408040E1F70C
:100BF00000C00000AB98AD989FEFE2E5F7E09150A0
:100C0000E040F040E1F700C00000BDDA882339F190
:100C10000093DA0003DB5FDB6EEB70E0CE014396FE
:100C20008ED4882321F08091DA00811120C06EEBF0
:100C300070E0CE01439683D4811144C01150183026
:100C400008F04BC0E12FF0E0E95DF94F099444C092
:100C500044C056C055C05EC079C0AEC0AFC032DC23
:100C60008823D1F282E08093DA0073DCD4CF40E1B4
:100C700050E06091EB008EEE90E036D38091EC0076
:100C8000803128F46BE670E08EEE90E066D240E1B1
:100C900050E06091EC008EEE90E026D38091ED0064
:100CA000803128F46BE670E08EEE90E056D240E1A1
:100CB00050E06091ED008EEE90E01CD38EEE90E05F
:100CC000CED0BCCF8091DA008111B8CF66E670E05B
:100CD0008EEE90E053D2F2CF48DD8EEE90E0BFD0A2
:100CE000CE01079618D3CE010D9615D3CE014396AB
:100CF00012D3CE0149960FD3CE014F960CD3BFCE5F
:100D00002FEF80E792E0215080409040E1F700C053
:100D10000000E3CF2BE030E049E050E0BE01675E29
:100D20007F4FCE01019627D4BE016F5F7F4FCE016A
:100D30000D96B1D3CE010196EED2CE010D9674D4AC
:100D40007093DE006093DD0049DDC7CF2EE030E018
:100D500049E050E0BE01675E7F4FCE0101960BD4A3
:100D6000BE016F5F7F4FCE010D9695D3CE010196E8
:100D7000D2D2CE010D9658D47093DC006093DB0084
:100D800021E130E04EE050E0BE01675E7F4FCE01D2
:100D90000196F1D3BE016F5F7F4FCE0107967BD3E3
:100DA000CE010196B8D2CE010D963ED47093E000EC
:100DB0006093DF00A7DD91CFF2DC8FCF13DE8DCF04
:100DC000FC01918D228D892F90E0805C9F4F821BCA
:100DD00091098F7399270895FC01918D828D981741
:100DE00031F0828DE80FF11D858D90E008958FEF31
:100DF0009FEF0895FC01918D828D981761F0A28D6F
:100E0000AE0FBF2FB11D5D968C91928D9F5F9F732A
:100E1000928F90E008958FEF9FEF0895FC01A48DCD
:100E2000A80FB92FB11DA35ABF4F2C91848D90E00C
:100E300001968F739927848FA689B7892C93A089EF
:100E4000B1898C9180648C93938D848D981306C0A6
:100E50000288F389E02D80818F7D80830895CF9370
:100E6000DF93EC01888D8823B1F0AA89BB89E889DA
:100E7000F9898C9185FD03C0808186FD0CC00FB679
:100E800007FCF7CF8C9185FFF2CF808185FFEDCFF6
:100E9000CE01C4DFEACFDF91CF910895EF92FF92A8
:100EA0000F931F93CF93DF93EC0181E0888F9B8D8D
:100EB0008C8D981316C0E889F989808185FF11C04F
:100EC000EE89FF896083E889F98980818064808365
:100ED00081E090E0DF91CF911F910F91FF90EF9013
:100EE0000895F62E0B8D10E00F5F1F4F0F73112723
:100EF000E02E8C8D8E110BC00FB607FCFACFE8895F
:100F0000F989808185FFF5CFCE0188DFF2CFEB8DA7
:100F1000EC0FFD2FF11DE35AFF4FF0820B8FEA8992
:100F2000FB8980818062D3CFCF92DF92EF92FF92D4
:100F30001F93CF93DF93EC016A017B01122F60E8CE
:100F400074E88EE190E0A701960178D32150310931
:100F5000410951095695479537952795E889F989AB
:100F600082E08083211580E1380790F0E889F989D3
:100F7000108260E472E48FE090E0A70196015ED3F6
:100F800021503109410951095695479537952795C3
:100F9000EC85FD853083EE85FF852083188E1068F3
:100FA000EC89FD891083EA89FB89808180618083D7
:100FB000EA89FB89808188608083EA89FB89808156
:100FC00080688083EA89FB8980818F7D8083DF91BF
:100FD000CF911F91FF90EF90DF90CF9008951F92D7
:100FE0000F920FB60F9211242F938F939F93EF932D
:100FF000FF93E091FE00F091FF008081E0910401F9
:10100000F091050182FD1BC09081809107018F5FE7
:101010008F7320910801821741F0E0910701F0E001
:10102000E251FF4F958F80930701FF91EF919F91C0
:101030008F912F910F900FBE0F901F901895808168
:10104000F4CF1F920F920FB60F9211242F933F935C
:101050004F935F936F937F938F939F93AF93BF93C0
:10106000EF93FF938EEE90E0D9DEFF91EF91BF9169
:10107000AF919F918F917F916F915F914F913F9130
:101080002F910F900FBE0F901F901895EEEEF0E08D
:101090001382128288EE93E0A0E0B0E0848395830F
:1010A000A683B7838AEC90E09183808380E490E00C
:1010B0009587848729E230E0378726872BE230E066
:1010C000318B208B2AE230E0338B228B958B848B03
:1010D0008CE290E0978B868B118E128E138E148E7D
:1010E0000895AF92BF92CF92DF92EF92FF920F934B
:1010F0001F93CF93DF936C017B018B01040F151FAE
:10110000EB015E01AE18BF08C017D10759F0699115
:10111000D601ED91FC910190F081E02DC601099579
:10112000892B79F7C501DF91CF911F910F91FF9026
:10113000EF90DF90CF90BF90AF900895FB010190AA
:101140000020E9F73197AF01461B570BDC01ED9109
:10115000FC910280F381E02D09946115710509F07D
:10116000EDCF90E080E00895DC01ED91FC910190DD
:10117000F081E02D099466ED70E0E0CF0F931F93AE
:10118000CF93DF938C01D0E0C0E06115710511F0C1
:10119000D5DFEC01C801EFDF8C0F9D1FDF91CF91F0
:1011A0001F910F9108958F929F92AF92BF92EF92ED
:1011B000FF920F931F93CF93DF93CDB7DEB7A19725
:1011C0000FB6F894DEBF0FBECDBF7C01FA01CB0194
:1011D00019A2223008F42AE08E010F5D1F4F822EE3
:1011E000912CB12CA12CBF01A501940127D2F901AA
:1011F000CA016A3004F5605DD8016E938D01232B1E
:10120000242B252B81F790E080E0109719F0BD0189
:10121000C70194DFA1960FB6F894DEBF0FBECDBF15
:10122000DF91CF911F910F91FF90EF90BF90AF9002
:101230009F908F900895695CDFCFCF92DF92EF92FD
:10124000FF920F931F93CF93DF932115310581F404
:10125000DC01ED91FC910190F081E02D642FDF9194
:10126000CF911F910F91FF90EF90DF90CF90099455
:101270002A303105F1F42AE077FF1BC06A017B01B7
:10128000EC016DE271DF8C0144275527BA014C193E
:101290005D096E097F092AE0CE0185DF800F911F6D
:1012A000DF91CF911F910F91FF90EF90DF90CF9042
:1012B0000895DF91CF911F910F91FF90EF90DF90F4
:1012C000CF9071CF9A01AB01770F660B770BB5CF3B
:1012D0002115310541F4DC01ED91FC910190F08183
:1012E000E02D642F09945FCF9A01462F50E070E003
:1012F00060E0EECF0F931F93CF93DF93EC01F4DF09
:101300008C01CE0138DF800F911FDF91CF911F91AB
:101310000F9108950895FC018081918153C2CF936C
:10132000DF93EC0188819981009709F04BD21982F3
:1013300018821D821C821B821A82DF91CF91089530
:101340000F931F93CF93DF93EC018B016F5F7F4F60
:1013500088819981C0D2009751F0998388831B833B
:101360000A8381E0DF91CF911F910F91089580E072
:10137000F9CFCF93DF93EC0188819981892B49F0D4
:101380008A819B818617970720F081E0DF91CF91BA
:101390000895CE01D5DF8823C9F38C819D81892BE7
:1013A000A1F7E881F9811082F0CFEF92FF920F93BD
:1013B0001F93CF93DF93EC017B018A01BA01D9DF40
:1013C00081110AC0CE01ABDFCE01DF91CF911F9119
:1013D0000F91FF90EF9008951D830C83B7018881D2
:1013E00099816FD3F1CFFC01118210821382128296
:1013F000158214826115710549F0FB0101900020EE
:10140000E9F73197AF01461B570BCFCF0895FB018A
:1014100001900020E9F73197AF01461B570BC5CF6C
:101420000F931F93CF93DF938C01EB01FC0180811D
:1014300091810097F1F06881798161157105C1F0A2
:101440002AE839E0232BA1F0428153812C813D8190
:101450004217530768F035D38C819D81F80195833D
:1014600084831D821C82DF91CF911F910F9108957B
:10147000A9D188819981F801918380838A819B8198
:10148000938382838C819D819583848319821882C2
:101490001B821A82E6CFCF93DF93EC018617970762
:1014A00009F0BEDFCE01DF91CF910895CF93DF9396
:1014B000EC016115710529F0AADFCE01DF91CF9112
:1014C00008952DDFFACFEF92FF920F931F93CF93E2
:1014D000DF936115710541F480E0DF91CF911F9199
:1014E0000F91FF90EF90089541155105A1F07B01F8
:1014F000EC010C811D81040F151FB8013ADF882310
:1015000059F3288139818C819D81B701820F931F06
:10151000D8D21D830C8381E0E0CFCF93DF9300D03E
:10152000CDB7DEB769831A8241E050E0BE016F5F3C
:101530007F4FC9DF0F900F90DF91CF910895FC018D
:1015400024813581232B31F421E0FB01672B49F401
:10155000822F0895808191816115710539F421E010
:10156000FC0180818823A1F320E0F2CFA1D221E009
:10157000892B71F3F9CFAF92BF92CF92DF92EF92A6
:10158000FF920F931F93CF93DF935C016B017A015E
:1015900089012417350720F48F2D7901042F182F86
:1015A00068ED70E0C5011FDFD6011496CD91DC9186
:1015B000EC16FD06C0F40C171D0708F4E801D6016F
:1015C000ED91FC911197EC0FFD1F108110826D9130
:1015D0007C916E0D7F1DC50169DFF60180819181CF
:1015E000C80FD91F1883C501DF91CF911F910F91AB
:1015F000FF90EF90DF90CF90BF90AF900895CF9382
:10160000DF93FC01C081D181209759F08991882313
:1016100041F0082E000C990B3AD2FE0131978083DD
:10162000F5CFDF91CF910895FC01808191810097E2
:1016300009F007C260E070E0CB010895A1E21A2E24
:10164000AA1BBB1BFD010DC0AA1FBB1FEE1FFF1F66
:10165000A217B307E407F50720F0A21BB30BE40BB6
:10166000F50B661F771F881F991F1A9469F76095FD
:101670007095809590959B01AC01BD01CF010895B7
:10168000EE0FFF1F0590F491E02D09940F931F9327
:10169000CF93DF938230910510F482E090E0E091E7
:1016A0008D01F0918E0130E020E0B0E0A0E03097B5
:1016B00099F42115310509F44AC0281B390B24304F
:1016C0003105D8F58A819B816115710589F1FB018E
:1016D00093838283FE0111C0408151810281138175
:1016E00048175907E0F04817590799F4109761F027
:1016F00012960C93129713961C933296CF01DF919A
:10170000CF911F910F91089500938D0110938E0139
:10171000F4CF2115310551F04217530738F0A901D4
:10172000DB019A01BD01DF01F801C1CFEF01F9CF63
:1017300090938E0180938D01CDCFFE01E20FF31FB8
:10174000819391932250310939832883D7CF2091F7
:101750008B0130918C01232B41F420916200309158
:10176000630030938C0120938B01209160003091B5
:1017700061002115310541F42DB73EB74091640059
:1017800050916500241B350BE0918B01F0918C0189
:10179000E217F307A0F42E1B3F0B2817390778F048
:1017A000AC014E5F5F4F2417350748F04E0F5F1FA7
:1017B00050938C0140938B01819391939FCFF0E0E4
:1017C000E0E09CCFCF93DF930097E9F0FC013297E4
:1017D00013821282A0918D01B0918E01ED0130E053
:1017E00020E01097A1F420813181820F931F209176
:1017F0008B0130918C012817390709F061C0F093F3
:101800008C01E0938B01DF91CF910895EA01CE170F
:10181000DF07E8F54A815B819E0141155105B1F76B
:10182000E901FB83EA8349915991C40FD51FEC1755
:10183000FD0761F4808191810296840F951FE90173
:1018400099838883828193819B838A83F0E0E0E09F
:1018500012968D919C9113970097B9F52D913C911B
:101860001197CD010296820F931F20918B01309129
:101870008C012817390739F6309751F510928E01EF
:1018800010928D01B0938C01A0938B01BCCFD383B8
:10189000C28340815181840F951FC817D90761F415
:1018A0004E5F5F4F88819981480F591F5183408354
:1018B0008A819B81938382832115310509F0B0CF02
:1018C000F0938E01E0938D019ECFFD01DC01C0CF2E
:1018D00013821282D7CFB0E0A0E0E0E7FCE00FC1B6
:1018E0008C01009741F4CB01D1DE8C01C801CDB74A
:1018F000DEB7E0E120C1FC01E60FF71F9C0122509A
:101900003109E217F30708F499C0D901CD91DC91B0
:101910001197C617D70790F0C530D10538F3CE011F
:1019200004978617970710F3C61BD70B2297C1930E
:10193000D1936D937C93CF0145DFD8CF5B01AC1A77
:10194000BD0A4C018C0E9D1EA0918D01B0918E019F
:10195000512C412CF12CE12C109731F580918B0109
:1019600090918C018815990509F05CC046165706C0
:1019700008F058C08091600090916100009741F498
:101980008DB79EB74091640050916500841B950B04
:10199000E817F90708F052C0F0938C01E0938B012F
:1019A000F90171836083A2CF8D919C91119712965A
:1019B0006C90129713967C901397A815B90559F55A
:1019C0006C0142E0C40ED11CCA14DB0420F1AC014E
:1019D0004A195B09DA011296159780F062827382C8
:1019E00051834083D9016D937C93E114F10471F02C
:1019F000D7011396FC93EE93129778CF22968C0F13
:101A00009D1FF90191838083F301EFCFF0938E0145
:101A1000E0938D016BCF4816590608F42C017D0127
:101A2000D3019ACFCB0132DE7C01009739F0AE01B1
:101A3000B80135D0C801C6DE870158CF10E000E0FC
:101A400055CF1F93FC0199278827BC01E894119179
:101A50001032E9F3193010F01E30C8F31B3249F090
:101A60001D3241F4689405C033D0610F711D811D92
:101A7000911D119110531A30B8F33EF49095809552
:101A8000709561957F4F8F4F9F4F1F9108959111D2
:101A9000089581568A5108F4805285580895FB01B3
:101AA000DC0102C001900D9241505040D8F70895DA
:101AB000FB01DC018D91019080190110D9F3990B84
:101AC0000895FB01DC0101900D920020E1F70895DB
:101AD000592F482F372F262F660F771F881F991FE2
:101AE000660F771F881F991F620F731F841F951F32
:101AF000660F771F881F991F08952F923F924F926C
:101B00005F926F927F928F929F92AF92BF92CF928D
:101B1000DF92EF92FF920F931F93CF93DF93CDB796
:101B2000DEB7CA1BDB0B0FB6F894DEBF0FBECDBF0E
:101B300009942A88398848885F846E847D848C84DF
:101B40009B84AA84B984C884DF80EE80FD800C81E8
:101B50001B81AA81B981CE0FD11D0FB6F894DEBFCB
:0C1B60000FBECDBFED010895F894FFCF3B
:101B6C0000008F018000303030303030003E3E506D
:101B7C006F776572204F6E2E003E3E002B4643540D
:101B8C00525354003E3E2B666374727374002B45A3
:101B9C005243484950002B575246555345002B4C45
:101BAC00434B424954002B5244464C5348002B574C
:101BBC0052464C5348002B4348494E464F002B4746
:101BCC00455453494700000000004E077108E006D9
:0A1BDC00FA06EC062F070D0A0000C0
:00000001FF
