:100000004FC073C072C071C070C06FC06EC06DC091
:100010006CC06BC06AC0FEC72FC867C066C065C031
:1000200064C063C062C01E90076AFF001E91086230
:10003000DFFF1E920662DFFF1E930B62DFFF1E9141
:100040000B62DFFF1E920762DFFF1E930C62DFFF71
:100050001E920562DFFF1E920A62DFFF1E9307E118
:10006000D9FF1E930A62DFF91E930F62DFF91E9417
:1000700003E199FF1E940662DFF91E940B62DFF91B
:100080001E9502E199FF1E951462D9FF1E950F621D
:10009000D9FF1E951662DFF700000000000061081E
:1000A00011241FBECFE5D4E0DEBFCDBF10E0A0E637
:1000B000B0E0EEEDFBE102C005900D92AE3DB10760
:1000C000D9F721E0AEEDB0E001C01D92AC38B20727
:1000D000E1F710E0C0E5D0E003C02197FE0109DBA5
:1000E000CF34D107D1F759D378CD8ACF8DEE84BBE9
:1000F00083E085BB8CEF81BB12BA8FEF87BB18BA48
:10010000089582B38F7082BBAA98AD9A82B38C6037
:1001100082BB8FEC97E00197F1F700C00000A89830
:100120008FEC97E00197F1F700C000000895A89ABE
:1001300085B38B7D85BB82B3837082BB18BA08956B
:10014000AB9A82E08A95F1F700C0AB9882E08A957D
:10015000F1F700C00895969A92B39F7C92BB88BB3A
:1001600082E08A95F1F700C0EBCF92B39F7892BB03
:1001700088BB82E08A95F1F700C0E2CF959A969805
:1001800088BB82E08A95F1F700C0DACF939882E0CD
:100190008A95F1F700C0939A9C9BFECF08950F9328
:1001A0001F93CF93DF93ADDF08EE10E0C0E0DFEFE9
:1001B00088E0D1DF8C2FD9DF17BA82B38B7E82BB68
:1001C00082E08A95F1F700C086B3F80181938F0130
:1001D000929AD7BBCF5FC33059F79C9BFECFA7DF66
:1001E0003091E8004091E9005091EA0020E066E09B
:1001F000269FC0011124FC01EA5DFF4F7491772313
:1002000089F0E4913E130CC0FC01E95DFF4FE491DD
:100210004E1306C0FC01E85DFF4FE4915E1741F00C
:100220002F5FE6CF80E0DF91CF911F910F9108956E
:1002300081E0F9CF66DF84E08EDF17BAE4EEF0E00C
:1002400080E08230F9F0833009F1813029F092B3F7
:100250009B7E92BBAA9803C09298949AAA9A92E025
:100260009A95F1F700C096B391939AE19A95F1F7B8
:1002700000C08F5F843029F7929A8FEF87BB9C9BD9
:10028000FECF55CF92B39B7E92BBE8CF9298949AC3
:10029000E1CFCF93C82F35DF80E25DDF8C2F65DFA4
:1002A00075DFCF9144CF2DDF80E855DF939882E052
:1002B0008A95F1F700C0939A9C9BFECF38CF30917E
:1002C000E8004091E9005091EA0020E066E0269FB6
:1002D000C0011124FC01EA5DFF4F7491772329F1DD
:1002E000E4913E1320C0FC01E95DFF4FE4914E1301
:1002F0001AC0FC01E85DFF4FE4915E1314C0FC01DD
:10030000E75DFF4FE491E093E100FC01E65DFF4F04
:10031000E491E093E200FC01E55DFF4FE491E0939E
:10032000E30081E008952F5FD2CF80E00895CF935E
:10033000C82FC5DF882331F1E4DE80E40CDFEC2F29
:10034000F0E0E252FF4F808119DFCC2321F0C13071
:1003500081F4949AAA98939882E08A95F1F700C064
:10036000939A87EC90E00197F1F700C00000CF91DD
:10037000DECEC230E1F78091E0008823C1F394988B
:10038000AA9AE9CFCF9108950ADF811102C080E0D7
:1003900027C095DF8091E1008093DE0080E0C7DF19
:1003A0008091E2008093DF0081E0C1DF8091E30073
:1003B0008093E00082E0BBDF3DDF9091E40080911C
:1003C000E1009813E4CF9091E5008091E20098134A
:1003D000DECF81E02091E6009091E3002913D7CF92
:1003E000089581B38C6181BB84B3896284BB82B37D
:1003F000837E82BBA89A85B3877D85BB2FE788E380
:1004000091E0215080409040E1F700C00000AD9A9B
:1004100020EA2A95F1F7A89885E38A95F1F700007C
:100420008A9887E592E00197F1F700C000000895EF
:1004300082B3877E82BBAB98A89A8AE18A95F1F74E
:1004400000C0AD980895AB9A82E08A95F1F700C09C
:10045000AB9808950F931F93CF93DF93082F162F18
:1004600082B3877E82BBEFDFD8E0C0E0CC0F8299F9
:10047000C16007FF14C0949A17FF13C0939AE3DF7B
:10048000000F110FD15091F782B3877E82BBDBDF63
:10049000DADF8C2FDF91CF911F910F9108959498FF
:1004A000EBCF9398ECCF829BFECF0895CF93C82FCC
:1004B0006CE480E4CFDF6CE28C2FCCDF64E680E07C
:1004C000C9DF6CE680E0C6DFEEDF6CE480E0C2DF0F
:1004D000CF91E9CFCF93C82F6CE480E4BBDF6CE20F
:1004E0008C2FB8DF64E780E0B5DF6CE780E0B2DF37
:1004F000DADF6CE480E0AEDFCF91D5CF72DF6CE461
:1005000080E8A8DF64E680E0A5DF6CE680E0A2DF9B
:10051000CADF6CE480E09EDFC6DF8ACF0F931F93B3
:10052000CF935FDF08EE10E0C0E06CE488E092DF7C
:100530006CE08C2F8FDF68E680E08CDF6CE680E07B
:1005400089DFF80181938F01FAE1FA95F1F700C094
:10055000CF5FC33051F76CDF3091E8004091E90084
:100560005091EA0020E066E0269FC0011124FC01C2
:10057000EA5DFF4F7491772389F0E4913E130CC03C
:10058000FC01E95DFF4FE4914E1306C0FC01E85DFC
:10059000FF4FE4915E1739F02F5FE6CF80E0CF91F7
:1005A0001F910F91089581E0FACFCF93DF93B6DFCB
:1005B000C82F882309F471C082DE13DF6CE484E065
:1005C00049DF68E680E046DF6CE680E043DF809349
:1005D000E4006CE484E03EDF6AE780E03BDF6EE746
:1005E00080E038DF8093E5008091E300882309F400
:1005F0004BC06CE484E02EDF6AE680E02BDF6EE621
:1006000080E028DF8093E6006CE484E023DF68E785
:1006100080E020DF6CE780E01DDF8093E70008DFEB
:100620006091E8007091E900A091EA003091E1004A
:100630002091E2005091E30040E0B6E04B9FC00102
:100640001124FC01EA5DFF4FD491DD2301F1E49117
:100650006E1318C0FC01E95DFF4FE4917E1312C0D8
:10066000FC01E85DFF4FE491AE130CC0FC01E75DB7
:10067000FF4F3491FC01E65DFF4F2491FC01E55DE5
:10068000FF4F54914F5FDACF1092E600BDCF309309
:10069000E1002093E2005093E3008C2FDF91CF9193
:1006A0000895CF933BDF882341F109DE9ADE8091E4
:1006B000E1009091E4009813F9DE8091E2009091BE
:1006C000E500981307DFC091E300CC23A9F08091E7
:1006D000E600C81789F06CE480E4BCDE6CE28C2F85
:1006E000B9DE66E680E0B6DE6EE680E0B3DEDBDE35
:1006F0006CE480E0AFDED7DE9BDE57DF9091E40054
:100700008091E10098130CC09091E5008091E20087
:10071000981306C081E02091E6009091E300291330
:1007200080E0CF910895CF92DF92EF92FF92CF9326
:10073000DF936B017C016CE482E08CDED701C601A3
:10074000B695A795979587956CE084DED701C6018D
:1007500039E0B695A795979587953A95D1F76CE1CD
:1007600079DE68E680E076DE6CE680E073DED82F26
:1007700068E780E06FDE6CE780E06CDEC82F6CE439
:1007800080E068DE90DEC0FECD2F8C2FDF91CF9110
:10079000FF90EF90DF90CF900895CF93DF93CDB788
:1007A000DEB7A4970FB6F894DEBF0FBECDBF789426
:1007B00026E040E950ED63E070E08BEE90E0CFD3AF
:1007C00066E670E08BEE90E012D528EEA22E20E0D7
:1007D000B22E8CDC6DED70E0CE014F963DD665E714
:1007E00070E0CE01499638D66DED70E0CE014396AB
:1007F00033D66DED70E0CE010D962ED66DED70E026
:10080000CE01079629D666E170E0CE014996EAD579
:1008100010E0999B03C0112309F442C02FE738E38D
:1008200041E0215030404040E1F700C0000000E0CE
:1008300011E0F12C999902C0111142C029E030E079
:1008400042E050E0BE01675E7F4FCE010196CCD6FC
:10085000BE016F5F7F4FCE01439656D6CE01019603
:1008600093D52BE030E049E050E0BE01675E7F4F5A
:10087000CE010196B9D6BE016F5F7F4FCE010D96B6
:1008800043D6CE01019680D5CE010D9606D7C62E51
:10089000CE014396EDD6999928C00000FCCF11E017
:1008A0008BEE90E0A8D2892B09F4B3CF8BEE90E0C9
:1008B000BCD28A30A1F3682FCE01499667D6F0CF1B
:1008C0008FE59AEE0197F1F700C00000F39492E3F0
:1008D0009F1508F0AFCFAD9AAB9A68E770E0CE01F4
:1008E00049961DD6012F10E0A5CFEFE7F8E321E0F0
:1008F000E150F0402040E1F700C00000AB98AD9817
:100900003FEF42E587E0315040408040E1F700C0D2
:10091000000045DC8823D9F08DDCD1DC62E870E092
:10092000CE014F96FCD511E06CE870E0CE01439605
:100930003FD6882311F0111117C06CE870E0CE018A
:10094000439636D681114EC0FF24F39438C0E6DDBD
:1009500010E0882349F329DEB2DC67E870E0CE01BD
:100960004F96DDD512E0E0CF40E150E06091E80025
:100970008BEE90E0F2D48091E900803128F469E9AF
:1009800070E08BEE90E012D440E150E06091E9001D
:100990008BEE90E0E2D48091EA00803128F469E99E
:1009A00070E08BEE90E002D440E150E06091EA000C
:1009B0008BEE90E0D8D48BEE90E06CD2F12C6BE90A
:1009C00070E0CE014396F4D58823A1F0112391F075
:1009D000113009F0DDC167DCD7DC81112BDCF110AF
:1009E00039C098C01111B0CF64E970E08BEE90E08F
:1009F000FED3E1CF63EA70E0CE014396D9D58823D8
:100A000011F011119AC06BEA70E0CE014396D0D577
:100A10008111E6C063EB70E0CE014396C9D5811128
:100A200036C16BEB70E0CE014396C2D5811151C146
:100A300063EC70E0CE014396BBD5811153C1011127
:100A4000C7CFFF2009F466C0112309F4ADC11130EE
:100A500009F0A8C1EFDBBE01615E7F4F8BEE90E035
:100A6000B6D308EE10E0F80181918F01803138F49F
:100A70004AE050E070E060E08BEE90E05CD440E152
:100A800050E0F801319760818BEE90E066D4F0E0A1
:100A90000B3E1F0741F78BEE90E096D304EE10E07B
:100AA000F80181918F01803138F44AE050E070E024
:100AB00060E08BEE90E03FD440E150E0F8013197E8
:100AC00060818BEE90E049D4A016B10649F78BEE19
:100AD00090E07AD301EE10E084EEE82E80E0F82E6C
:100AE000F80181918F01803138F44AE050E070E0E4
:100AF00060E08BEE90E01FD440E150E0F8013197C8
:100B000060818BEE90E029D4E016F10649F78BEE78
:100B100090E05AD38BEE90E0BDD1CE01079634D44D
:100B2000CE010D9631D4CE0143962ED4CE014996F6
:100B30002BD4CE014F9628D44CCEC092DE008091AB
:100B4000E900833951F48091EA008B3081F580917E
:100B5000E40080688093DE001EC0823951F48091E9
:100B6000EA008630A1F3873051F08530A1F482EE9F
:100B7000F1CF803941F48091EA00873061F48091AF
:100B8000E4008061E7CF8139D9F48091EA008830B0
:100B9000B1F38B30A1F38091DE00882309F44FCFAD
:100BA000113009F01EC180E0C2DB44DB77C08C301D
:100BB00031F3873011F484EECDCF8A3061F7D7CF8F
:100BC000843929F48091EA00863029F7D0CF85391D
:100BD00011F78091EA008F3051F28431E1F6C7CFEE
:100BE000112309F417CFC092DF008091E900833907
:100BF00099F48091EA008B3089F58091E5008F7738
:100C00008093DF008091DF00882309F418CF113032
:100C100009F0DDC081E0C8CF823949F48091EA0053
:100C2000863059F3873099F0853061F7E6CF803907
:100C300041F48091EA00873029F78091E5008E7FAA
:100C4000DFCF813991F48091EA00883021F48091DE
:100C5000E5008068D5CF8B30A9F6F9CF8C30B9F399
:100C6000873059F28A3071F6C8CF843929F48091DF
:100C7000EA00863039F6C1CF853921F68091EA0045
:100C80008F3009F4BACF843109F0BCCFB6CF11232D
:100C900009F4C7CE113031F48CEFFBDA002309F4EC
:100CA000D0CE99CE9EDB6CE480E2D4DB6CE28CEF9C
:100CB000D1DB64E680E0CEDB6CE680E0CBDBF3DB0F
:100CC0006CE480E0C7DBEFDBB3DB002309F4B9CED3
:100CD00062C0112309F4ACCE113011F4E4DADECF96
:100CE0000DDCF3CF112309F4ACCED12CDC2CCC24B9
:100CF000DD0CDD0C0D2C000CEE08FF0891E0C91A8C
:100D0000D108E108F108113069F480E090E0DC01DD
:100D10008C159D05AE05BF0508F068C00296A11DA3
:100D2000B11DF6CF5EDB60E070E0CB012B013C0132
:100D3000EFEF4E1A5E0A6E0A7E0AF5DC982EFFE08F
:100D4000F81738F04AE050E070E060E08BEE90E099
:100D5000F2D240E150E0692D8BEE90E0FED2D3015B
:100D6000C2018F709927AA27BB27892B8A2B8B2B2F
:100D700019F48BEE90E028D2C301B201C616D70653
:100D8000E806F90698F654DB002309F4C3CEF12CEB
:100D9000123009F056CEB2DB84DC811106DCFF2074
:100DA00009F4B8CE02DC57CEAD9A86E028E095B3C0
:100DB000922795BBFFEF34E34CE0F15030404040C8
:100DC000E1F700C00000815091F7AD98A3CE09DB98
:100DD0008091DF007FDB2CDBE8DB002309F431CEE0
:100DE000D7CFFFDA8091DE0061DBF5CF002309F475
:100DF00091CEF12CF0CDFC01918D228D892F90E0C8
:100E0000805C9F4F821B91098F7399270895FC0185
:100E1000918D828D981731F0828DE80FF11D858DAF
:100E200090E008958FEF9FEF0895FC01918D828DE2
:100E3000981761F0A28DAE0FBF2FB11D5D968C91FA
:100E4000928D9F5F9F73928F90E008958FEF9FEF39
:100E50000895FC01A48DA80FB92FB11DA35ABF4F4F
:100E60002C91848D90E001968F739927848FA689A9
:100E7000B7892C93A089B1898C9180648C93938DD0
:100E8000848D981306C00288F389E02D80818F7DC0
:100E900080830895CF93DF93EC01888D8823B1F090
:100EA000AA89BB89E889F9898C9185FD03C0808175
:100EB00086FD0CC00FB607FCF7CF8C9185FFF2CFF3
:100EC000808185FFEDCFCE01C4DFEACFDF91CF91E6
:100ED0000895EF92FF920F931F93CF93DF93EC014E
:100EE00081E0888F9B8D8C8D981316C0E889F989D5
:100EF000808185FF11C0EE89FF896083E889F989C7
:100F000080818064808381E090E0DF91CF911F91A8
:100F10000F91FF90EF900895F62E0B8D10E00F5F6C
:100F20001F4F0F731127E02E8C8D8E110BC00FB643
:100F300007FCFACFE889F989808185FFF5CFCE01DA
:100F400088DFF2CFEB8DEC0FFD2FF11DE35AFF4F41
:100F5000F0820B8FEA89FB8980818062D3CFCF92A8
:100F6000DF92EF92FF921F93CF93DF93EC016A0120
:100F70007B01122F60E874E88EE190E0A7019601F2
:100F800096D3215031094109510956954795379516
:100F90002795E889F98982E08083211580E1380767
:100FA00090F0E889F989108260E472E48FE090E0C3
:100FB000A70196017CD32150310941095109569569
:100FC000479537952795EC85FD853083EE85FF8520
:100FD0002083188E1068EC89FD891083EA89FB89CB
:100FE000808180618083EA89FB8980818860808339
:100FF000EA89FB89808180688083EA89FB89808116
:101000008F7D8083DF91CF911F91FF90EF90DF90D4
:10101000CF9008951F920F920FB60F9211242F9325
:101020008F939F93EF93FF93E091FB00F091FC006F
:101030008081E0910101F091020182FD1BC090814D
:10104000809104018F5F8F7320910501821741F019
:10105000E0910401F0E0E551FF4F958F809304018A
:10106000FF91EF919F918F912F910F900FBE0F9055
:101070001F9018958081F4CF1F920F920FB60F9298
:1010800011242F933F934F935F936F937F938F938D
:101090009F93AF93BF93EF93FF938BEE90E0D9DED6
:1010A000FF91EF91BF91AF919F918F917F916F9140
:1010B0005F914F913F912F910F900FBE0F901F9016
:1010C0001895EBEEF0E01382128288EE93E0A0E038
:1010D000B0E084839583A683B7838FEC90E09183FF
:1010E000808380E490E09587848729E230E0378729
:1010F00026872BE230E0318B208B2AE230E0338BE5
:10110000228B958B848B8CE290E0978B868B118E53
:10111000128E138E148E0895AF92BF92CF92DF92EB
:10112000EF92FF920F931F93CF93DF936C017B019C
:101130008B01040F151FEB015E01AE18BF08C0172D
:10114000D10759F06991D601ED91FC910190F081A0
:10115000E02DC6010995892B79F7C501DF91CF9163
:101160001F910F91FF90EF90DF90CF90BF90AF90C5
:101170000895FB0101900020E9F73197AF01461B6C
:10118000570BDC01ED91FC910280F381E02D099475
:10119000DB0114964D915C9115976D917C91DC016A
:1011A000ED91FC910280F381E02D099461157105A8
:1011B00009F0DFCF90E080E00895DC01ED91FC9133
:1011C0000190F081E02D09946BED70E0D2CF0F9388
:1011D0001F93CF93DF93EC01DBDF8C01CE01F4DFB3
:1011E000800F911FDF91CF911F910F9108950F9361
:1011F0001F93CF93DF938C01D0E0C0E061157105A0
:1012000011F0B7DFEC01C801DFDF8C0F9D1FDF910C
:10121000CF911F910F9108958F929F92AF92BF929D
:10122000EF92FF920F931F93CF93DF93CDB7DEB76B
:10123000A1970FB6F894DEBF0FBECDBF7C01FA01B7
:10124000CB0119A2223008F42AE08E010F5D1F4F56
:10125000822E912CB12CA12CBF01A501940127D283
:10126000F901CA016A3004F5605DD8016E938D0101
:10127000232B242B252B81F790E080E0109719F089
:10128000BD01C70176DFA1960FB6F894DEBF0FBE91
:10129000CDBFDF91CF911F910F91FF90EF90BF9045
:1012A000AF909F908F900895695CDFCFCF92DF92CF
:1012B000EF92FF920F931F93CF93DF932115310588
:1012C00081F4DC01ED91FC910190F081E02D642F1F
:1012D000DF91CF911F910F91FF90EF90DF90CF9012
:1012E00009942A303105F1F42AE077FF1BC06A0126
:1012F0007B01EC016DE261DF8C0144275527BA01C7
:101300004C195D096E097F092AE0CE0185DF800F47
:10131000911FDF91CF911F910F91FF90EF90DF9080
:10132000CF900895DF91CF911F910F91FF90EF9093
:10133000DF90CF9071CF9A01AB01770F660B770BDF
:10134000B5CF2115310541F4DC01ED91FC910190FF
:10135000F081E02D642F09945FCF9A01462F50E071
:1013600070E060E0EECF0F931F93CF93DF93EC011B
:10137000F4DF8C01CE0128DF800F911FDF91CF9128
:101380001F910F9108950895FC018081918153C2AE
:10139000CF93DF93EC0188819981009709F04BD2BC
:1013A000198218821D821C821B821A82DF91CF91C2
:1013B00008950F931F93CF93DF93EC018B016F5F21
:1013C0007F4F88819981C0D2009751F0998388839B
:1013D0001B830A8381E0DF91CF911F910F910895C4
:1013E00080E0F9CFCF93DF93EC0188819981892B3D
:1013F00049F08A819B818617970720F081E0DF9171
:10140000CF910895CE01D5DF8823C9F38C819D81CA
:10141000892BA1F7E881F9811082F0CFEF92FF923A
:101420000F931F93CF93DF93EC017B018A01BA01E5
:10143000D9DF81110AC0CE01ABDFCE01DF91CF91A0
:101440001F910F91FF90EF9008951D830C83B701BA
:10145000888199816FD3F1CFFC01118210821382B0
:101460001282158214826115710549F0FB01019009
:101470000020E9F73197AF01461B570BCFCF0895F6
:10148000FB0101900020E9F73197AF01461B570B94
:10149000C5CF0F931F93CF93DF938C01EB01FC011A
:1014A000808191810097F1F06881798161157105E2
:1014B000C1F023EC39E0232BA1F0428153812C8130
:1014C0003D814217530768F035D38C819D81F80127
:1014D000958384831D821C82DF91CF911F910F9190
:1014E0000895A9D188819981F801918380838A81A7
:1014F0009B81938382838C819D81958384831982D0
:1015000018821B821A82E6CFCF93DF93EC018617F5
:10151000970709F0BEDFCE01DF91CF910895CF93F9
:10152000DF93EC016115710529F0AADFCE01DF918F
:10153000CF9108952DDFFACFEF92FF920F931F9373
:10154000CF93DF936115710541F480E0DF91CF9176
:101550001F910F91FF90EF90089541155105A1F053
:101560007B01EC010C811D81040F151FB8013ADFCE
:10157000882359F3288139818C819D81B701820F9D
:10158000931FD8D21D830C8381E0E0CFCF93DF93EC
:1015900000D0CDB7DEB769831A8241E050E0BE01CA
:1015A0006F5F7F4FC9DF0F900F90DF91CF9108954C
:1015B000FC0124813581232B31F421E0FB01672BD1
:1015C00049F4822F0895808191816115710539F464
:1015D00021E0FC0180818823A1F320E0F2CFA1D299
:1015E00021E0892B71F3F9CFAF92BF92CF92DF92B6
:1015F000EF92FF920F931F93CF93DF935C016B01E8
:101600007A0189012417350720F48F2D7901042FE1
:10161000182F6DED70E0C5011FDFD6011496CD9136
:10162000DC91EC16FD06C0F40C171D0708F4E80168
:10163000D601ED91FC911197EC0FFD1F10811082E6
:101640006D917C916E0D7F1DC50169DFF601808172
:101650009181C80FD91F1883C501DF91CF911F91C8
:101660000F91FF90EF90DF90CF90BF90AF900895D3
:10167000CF93DF93FC01C081D181209759F08991EC
:10168000882341F0082E000C990B3AD2FE013197C5
:101690008083F5CFDF91CF910895FC018081918106
:1016A000009709F007C260E070E0CB010895A1E265
:1016B0001A2EAA1BBB1BFD010DC0AA1FBB1FEE1FCC
:1016C000FF1FA217B307E407F50720F0A21BB30B17
:1016D000E40BF50B661F771F881F991F1A9469F793
:1016E00060957095809590959B01AC01BD01CF01EF
:1016F0000895EE0FFF1F0590F491E02D09940F93CC
:101700001F93CF93DF938230910510F482E090E035
:10171000E0918A01F0918B0130E020E0B0E0A0E0A0
:10172000309799F42115310509F44AC0281B390B6B
:1017300024303105D8F58A819B816115710589F1C5
:10174000FB0193838283FE0111C04081518102819C
:10175000138148175907E0F04817590799F4109773
:1017600061F012960C93129713961C933296CF0148
:10177000DF91CF911F910F91089500938A011093EB
:101780008B01F4CF2115310551F04217530738F082
:10179000A901DB019A01BD01DF01F801C1CFEF0111
:1017A000F9CF90938B0180938A01CDCFFE01E20F98
:1017B000F31F819391932250310939832883D7CF26
:1017C0002091880130918901232B41F420916200FE
:1017D000309163003093890120938801209160004B
:1017E000309161002115310541F42DB73EB740918C
:1017F000640050916500241B350BE0918801F09145
:101800008901E217F307A0F42E1B3F0B28173907B5
:1018100078F0AC014E5F5F4F2417350748F04E0F4C
:101820005F1F5093890140938801819391939FCFCB
:10183000F0E0E0E09CCFCF93DF930097E9F0FC016C
:10184000329713821282A0918A01B0918B01ED012F
:1018500030E020E01097A1F420813181820F931FA6
:1018600020918801309189012817390709F061C05A
:10187000F0938901E0938801DF91CF910895EA0107
:10188000CE17DF07E8F54A815B819E0141155105BE
:10189000B1F7E901FB83EA8349915991C40FD51F40
:1018A000EC17FD0761F4808191810296840F951FEA
:1018B000E90199838883828193819B838A83F0E005
:1018C000E0E012968D919C9113970097B9F52D91B8
:1018D0003C911197CD010296820F931F20918801B0
:1018E000309189012817390739F6309751F5109250
:1018F0008B0110928A01B0938901A0938801BCCF1B
:10190000D383C28340815181840F951FC817D907A3
:1019100061F44E5F5F4F88819981480F591F518351
:1019200040838A819B81938382832115310509F04D
:10193000B0CFF0938B01E0938A019ECFFD01DC01D3
:10194000C0CF13821282D7CFB0E0A0E0E9EAFCE07A
:101950000FC18C01009741F4CB01D1DE8C01C8018D
:10196000CDB7DEB7E0E120C1FC01E60FF71F9C0117
:1019700022503109E217F30708F499C0D901CD913B
:10198000DC911197C617D70790F0C530D10538F311
:10199000CE0104978617970710F3C61BD70B229723
:1019A000C193D1936D937C93CF0145DFD8CF5B0179
:1019B000AC1ABD0A4C018C0E9D1EA0918A01B091FB
:1019C0008B01512C412CF12CE12C109731F5809199
:1019D0008801909189018815990509F05CC0461627
:1019E000570608F058C08091600090916100009700
:1019F00041F48DB79EB74091640050916500841BFF
:101A0000950BE817F90708F052C0F0938901E093AD
:101A10008801F90171836083A2CF8D919C91119708
:101A200012966C90129713967C901397A815B9058F
:101A300059F56C0142E0C40ED11CCA14DB0420F13C
:101A4000AC014A195B09DA011296159780F062829F
:101A5000738251834083D9016D937C93E114F10427
:101A600071F0D7011396FC93EE93129778CF2296DC
:101A70008C0F9D1FF90191838083F301EFCFF093C9
:101A80008B01E0938A016BCF4816590608F42C01AC
:101A90007D01D3019ACFCB0132DE7C01009739F072
:101AA000AE01B80135D0C801C6DE870158CF10E0BD
:101AB00000E055CF1F93FC0199278827BC01E894CB
:101AC00011911032E9F3193010F01E30C8F31B32B7
:101AD00049F01D3241F4689405C033D0610F711D87
:101AE000811D911D119110531A30B8F33EF4909559
:101AF0008095709561957F4F8F4F9F4F1F910895EF
:101B00009111089581568A5108F48052855808959C
:101B1000FB01DC0102C001900D9241505040D8F70A
:101B20000895FB01DC018D91019080190110D9F31A
:101B3000990B0895FB01DC0101900D920020E1F763
:101B40000895592F482F372F262F660F771F881F8C
:101B5000991F660F771F881F991F620F731F841FBD
:101B6000951F660F771F881F991F08952F923F9228
:101B70004F925F926F927F928F929F92AF92BF929D
:101B8000CF92DF92EF92FF920F931F93CF93DF9349
:101B9000CDB7DEB7CA1BDB0B0FB6F894DEBF0FBEA6
:101BA000CDBF09942A88398848885F846E847D84F3
:101BB0008C849B84AA84B984C884DF80EE80FD80F5
:101BC0000C811B81AA81B981CE0FD11D0FB6F8946B
:0E1BD000DEBF0FBECDBFED010895F894FFCF2C
:101BDE0000008C0180003E3E48656C6C6F20576F94
:101BEE00726C642E003E3E003E3E2B666374727332
:101BFE007400485650500048565350002B474554D9
:101C0E0053494700303030303030002B4643545269
:101C1E005354002B4D4158434C4B002B52535444BC
:101C2E004953002B4C434B424954002B45524348D9
:101C3E004950002B5244464C5348000000000069A6
:0E1C4E00078C08FB06150707074A070D0A005A
:00000001FF
