:100000004FC073C072C071C070C06FC06EC06DC091
:100010006CC06BC06AC0D4C805C967C066C065C083
:1000200064C063C062C01E90076AFF001E91086230
:10003000DFFF1E920662DFFF1E930B62DFFF1E9141
:100040000B62DFFF1E920762DFFF1E930C62DFFF71
:100050001E920562DFFF1E920A62DFFF1E9307E118
:10006000D9FF1E930A62DFF91E930F62DFF91E9417
:1000700003E199FF1E940662DFF91E940B62DFF91B
:100080001E9502E199FF1E951462D9FF1E950F621D
:10009000D9FF1E951662DFF7000000000000370947
:1000A00011241FBECFE5D4E0DEBFCDBF10E0A0E637
:1000B000B0E0EAEAFDE102C005900D92A23EB10770
:1000C000D9F721E0A2EEB0E001C01D92A039B2073D
:1000D000E1F710E0C0E5D0E003C02197FE01EFDBBF
:1000E000CF34D107D1F759D35ECE8ACF8DEE84BB02
:1000F00083E085BB8CEF81BB12BA8FEF87BB18BA48
:10010000089582B38F7082BBAA98AD9A82B38C6037
:1001100082BB8FEC97E00197F1F700C00000A89830
:100120008FEC97E00197F1F700C000000895A89ABE
:1001300085B38B7D85BB82B3837082BB18BA08956B
:10014000AB9A82E08A95F1F700C0AB9882E08A957D
:10015000F1F700C00895969A92B39F7C92BB88BB3A
:1001600082E08A95F1F700C0EBCF92B39F7892BB03
:1001700088BB82E08A95F1F700C0E2CF959A969805
:1001800088BB82E08A95F1F700C0DACF939882E0CD
:100190008A95F1F700C0939A9C9BFECF08950F9328
:1001A0001F93CF93DF93ADDF0CEE10E0C0E0DFEFE5
:1001B00088E0D1DF8C2FD9DF17BA82B38B7E82BB68
:1001C00082E08A95F1F700C086B3F80181938F0130
:1001D000929AD7BBCF5FC33059F79C9BFECFA7DF66
:1001E0003091EC004091ED005091EE0020E066E08F
:1001F000269FC0011124FC01EA5DFF4F7491772313
:1002000089F0E4913E130CC0FC01E95DFF4FE491DD
:100210004E1306C0FC01E85DFF4FE4915E1741F00C
:100220002F5FE6CF80E0DF91CF911F910F9108956E
:1002300081E0F9CF66DF84E08EDF17BAE8EEF0E008
:1002400080E08230F9F0833009F1813029F092B3F7
:100250009B7E92BBAA9803C09298949AAA9A92E025
:100260009A95F1F700C096B391939AE19A95F1F7B8
:1002700000C08F5F843029F7929A8FEF87BB9C9BD9
:10028000FECF55CF92B39B7E92BBE8CF9298949AC3
:10029000E1CFCF93C82F35DF80E25DDF8C2F65DFA4
:1002A00075DFCF9144CF2DDF80E855DF939882E052
:1002B0008A95F1F700C0939A9C9BFECF38CF30917E
:1002C000EC004091ED005091EE0020E066E0269FAA
:1002D000C0011124FC01EA5DFF4F7491772329F1DD
:1002E000E4913E1320C0FC01E95DFF4FE4914E1301
:1002F0001AC0FC01E85DFF4FE4915E1314C0FC01DD
:10030000E75DFF4FE491E093E500FC01E65DFF4F00
:10031000E491E093E600FC01E55DFF4FE491E0939A
:10032000E70081E008952F5FD2CF80E00895CF935A
:10033000C82FC5DF882331F1E4DE80E40CDFEC2F29
:10034000F0E0EE51FF4F808119DFCC2321F0C13066
:1003500081F4949AAA98939882E08A95F1F700C064
:10036000939A87EC90E00197F1F700C00000CF91DD
:10037000DECEC230E1F78091E4008823C1F3949887
:10038000AA9AE9CFCF9108950ADF811102C080E0D7
:1003900027C095DF8091E5008093E20080E0C7DF11
:1003A0008091E6008093E30081E0C1DF8091E70067
:1003B0008093E40082E0BBDF3DDF9091E800809114
:1003C000E5009813E4CF9091E9008091E60098133E
:1003D000DECF81E02091EA009091E7002913D7CF8A
:1003E000089581B38C6181BB84B3896284BB82B37D
:1003F000837E82BBA89A85B3877D85BB2FE788E380
:1004000091E0215080409040E1F700C00000AD9A9B
:1004100020EA2A95F1F7A89885E38A95F1F700007C
:100420008A9887E592E00197F1F700C000000895EF
:1004300082B3877E82BBAB98A89A8AE18A95F1F74E
:1004400000C0AD980895AB9A82E08A95F1F700C09C
:10045000AB9808950F931F93CF93DF93082F162F18
:1004600082B3877E82BBEFDFD8E0C0E0CC0F8299F9
:10047000C16007FF14C0949A17FF13C0939AE3DF7B
:10048000000F110FD15091F782B3877E82BBDBDF63
:10049000DADF8C2FDF91CF911F910F9108959498FF
:1004A000EBCF9398ECCF829BFECF0895CF93C82FCC
:1004B0006CE480E4CFDF6CE28C2FCCDF64E680E07C
:1004C000C9DF6CE680E0C6DFEEDF6CE480E0C2DF0F
:1004D000CF91E9CFCF93C82F6CE480E4BBDF6CE20F
:1004E0008C2FB8DF64E780E0B5DF6CE780E0B2DF37
:1004F000DADF6CE480E0AEDFCF91D5CF72DF6CE461
:1005000080E8A8DF64E680E0A5DF6CE680E0A2DF9B
:10051000CADF6CE480E09EDFC6DF8ACF0F931F93B3
:10052000CF935FDF0CEE10E0C0E06CE488E092DF78
:100530006CE08C2F8FDF68E680E08CDF6CE680E07B
:1005400089DFF80181938F01FAE1FA95F1F700C094
:10055000CF5FC33051F76CDF3091EC004091ED007C
:100560005091EE0020E066E0269FC0011124FC01BE
:10057000EA5DFF4F7491772389F0E4913E130CC03C
:10058000FC01E95DFF4FE4914E1306C0FC01E85DFC
:10059000FF4FE4915E1739F02F5FE6CF80E0CF91F7
:1005A0001F910F91089581E0FACFCF93DF93B6DFCB
:1005B000C82F882309F471C082DE13DF6CE484E065
:1005C00049DF68E680E046DF6CE680E043DF809349
:1005D000E8006CE484E03EDF6AE780E03BDF6EE742
:1005E00080E038DF8093E9008091E700882309F4F8
:1005F0004BC06CE484E02EDF6AE680E02BDF6EE621
:1006000080E028DF8093EA006CE484E023DF68E781
:1006100080E020DF6CE780E01DDF8093EB0008DFE7
:100620006091EC007091ED00A091EE003091E5003A
:100630002091E6005091E70040E0B6E04B9FC001FA
:100640001124FC01EA5DFF4FD491DD2301F1E49117
:100650006E1318C0FC01E95DFF4FE4917E1312C0D8
:10066000FC01E85DFF4FE491AE130CC0FC01E75DB7
:10067000FF4F3491FC01E65DFF4F2491FC01E55DE5
:10068000FF4F54914F5FDACF1092EA00BDCF309305
:10069000E5002093E6005093E7008C2FDF91CF9187
:1006A0000895CF933BDF882341F109DE9ADE8091E4
:1006B000E5009091E8009813F9DE8091E6009091B2
:1006C000E900981307DFC091E700CC23A9F08091DF
:1006D000EA00C81789F06CE480E4BCDE6CE28C2F81
:1006E000B9DE66E680E0B6DE6EE680E0B3DEDBDE35
:1006F0006CE480E0AFDED7DE9BDE57DF9091E80050
:100700008091E50098130CC09091E9008091E6007B
:10071000981306C081E02091EA009091E700291328
:1007200080E0CF910895CF92DF92EF92FF92CF9326
:10073000DF936B017C016CE482E08CDED701C601A3
:10074000B695A795979587956CE084DED701C6018D
:1007500039E0B695A795979587953A95D1F76CE1CD
:1007600079DE68E680E076DE6CE680E073DED82F26
:1007700068E780E06FDE6CE780E06CDEC82F6CE439
:1007800080E068DE90DEC0FECD2F8C2FDF91CF9110
:10079000FF90EF90DF90CF900895CF93DF93CDB788
:1007A000DEB7E0970FB6F894DEBF0FBECDBF7894EA
:1007B00026E040E058EE63E070E08FEE90E0A5D4D4
:1007C00066E670E08FEE90E0E8D590DC61EE70E0D8
:1007D000CE01859627D761E770E0CE014F9622D7EC
:1007E00061EE70E0CE0149961DD761EE70E0CE015A
:1007F000439618D761EE70E0CE010D9613D766E1EF
:1008000070E0CE014F96D4D610E0999B03C011231F
:1008100009F442C02FE738E341E021503040404026
:10082000E1F700C00000312C11E000E0999902C00E
:10083000111142C029E030E042E050E0BE01615EAB
:100840007F4FCE010196B6D7BE016F5F7F4FCE01BD
:10085000499640D7CE0101967DD62BE030E049E0A5
:1008600050E0BE01615E7F4FCE010196A3D7BE016D
:100870006F5F7F4FCE0143962DD7CE0101966AD68A
:10088000CE014396F0D7C62ECE014996D7D7999977
:1008900027C00000FCCF11E08FEE90E082D3892BBF
:1008A00009F4B3CF8FEE90E096D38A30A1F3682F8E
:1008B000CE014F9651D7F0CF8FE59AEE0197F1F721
:1008C00000C000000F5F033308F4B0CFAD9AAB9ABD
:1008D00064E770E0CE014F9608D7312E10E0A6CF26
:1008E0009FE7A8E3B1E09150A040B040E1F700C01D
:1008F0000000AB98AD98EFEFF2E527E0E150F04053
:100900002040E1F700C000004ADC8823D1F092DCEF
:10091000D6DC6EE770E0CE018596E7D611E068E898
:1009200070E0CE0149962AD7882311F0111116C024
:1009300068E870E0CE01499621D781114EC001E0F0
:1009400038C0ECDD10E0882351F32FDEB8DC63E81B
:1009500070E0CE018596C9D612E0E1CF40E150E0CB
:100960006091EC008FEE90E0CED58091ED0080316B
:1009700028F465E970E08FEE90E0EED440E150E0BD
:100980006091ED008FEE90E0BED58091EE00803159
:1009900028F465E970E08FEE90E0DED440E150E0AD
:1009A0006091EE008FEE90E0B4D58FEE90E048D3EA
:1009B00000E067E970E0CE014996E0D68823A9F00F
:1009C000112399F0113009F0E8C16DDCDDDC8111F3
:1009D00031DC002309F4A4C03FC01111B0CF60E99D
:1009E00070E08FEE90E0D9D4E0CF6FE970E0CE01F7
:1009F0004996C4D6882311F01111A5C067EA70E0AA
:100A0000CE014996BBD68111F1C06FEA70E0CE01EC
:100A10004996B4D6811141C167EB70E0CE01499689
:100A2000ADD681115CC16FEB70E0CE014996A6D6C0
:100A300081115EC167EC70E0CE0149969FD68111AD
:100A4000B8C13110BFCF002309F46AC0112309F4E3
:100A500081C2113009F0ABC1EDDBBE016B5D7F4F90
:100A60008FEE90E08AD40CEE10E0D8018D918D01CC
:100A7000803138F44AE050E070E060E08FEE90E0C2
:100A800030D540E150E0F801319760818FEE90E081
:100A90003AD5B0E00F3E1B0741F78FEE90E06AD4E5
:100AA00008EE10E09CEEE92E90E0F92EF80181911D
:100AB0008F01803138F44AE050E070E060E08FEE62
:100AC00090E00FD540E150E0F801319760818FEE62
:100AD00090E019D5E016F10649F78FEE90E04AD480
:100AE00005EE10E088EEE82E80E0F82ED8018D911A
:100AF0008D01803138F44AE050E070E060E08FEE24
:100B000090E0EFD440E150E0F801319760818FEE42
:100B100090E0F9D4E016F10649F78FEE90E02AD480
:100B20008FEE90E08DD2CE010D9614D5CE01439676
:100B300011D5CE0149960ED5CE014F960BD5CE01DB
:100B4000859608D542CEC092E2008091ED008339AF
:100B500051F48091EE008B3081F58091E80080683F
:100B60008093E2001EC0823951F48091EE008630FD
:100B7000A1F3873051F08530A1F482EEF1CF8039B6
:100B800041F48091EE00873061F48091E80080614B
:100B9000E7CF8139D9F48091EE008830B1F38B3002
:100BA000A1F38091E200882309F44BCF113009F0C2
:100BB000E4C180E0BCDB3EDB77C08C3031F38730B2
:100BC00011F484EECDCF8A3061F7D7CF843929F480
:100BD0008091EE00863029F7D0CF853911F78091CA
:100BE000EE008F3051F28431E1F6C7CF112309F4C2
:100BF0000CCFC092E3008091ED00833999F480918D
:100C0000EE008B3089F58091E9008F778093E300C7
:100C10008091E300882309F414CF113009F0B7C1A3
:100C200081E0C8CF823949F48091EE00863059F3D3
:100C3000873099F0853061F7E6CF803941F48091B3
:100C4000EE00873029F78091E9008E7FDFCF813970
:100C500091F48091EE00883021F48091E900806861
:100C6000D5CF8B30A9F6F9CF8C30B9F3873059F254
:100C70008A3071F6C8CF843929F48091EE0086302D
:100C800039F6C1CF853921F68091EE008F3009F415
:100C9000BACF843109F0BCCFB6CF112309F4BCCE52
:100CA000113031F48CEFF5DA332009F4CCCE8DCE4F
:100CB00098DB6CE480E2CEDB6CE28CEFCBDB64E6AD
:100CC00080E0C8DB6CE680E0C5DBEDDB6CE480E057
:100CD000C1DBE9DBADDB332009F4B5CE61C0112304
:100CE00009F4A1CE113011F4DEDADECF07DCF3CF48
:100CF000112309F49FCED12CDC2CCC24DD0CDD0C8F
:100D00000D2C000CEE08FF0831E0C31AD108E108F1
:100D1000F108113069F480E090E0DC018C159D054C
:100D2000AE05BF0508F038C10296A11DB11DF6CF72
:100D300058DB60E070E0CB014B015C014FEF841A9F
:100D4000940AA40AB40AEFDC082F803138F44AE090
:100D500050E070E060E08FEE90E0C3D340E150E0FF
:100D6000602F8FEE90E0CFD3D501C4018F7099270B
:100D7000AA27BB27892B8A2B8B2B19F48FEE90E0A7
:100D8000F9D2C501B401C616D706E806F906A0F6E1
:100D90004FDB332009F4C4CE00E0123009F053CE0B
:100DA000ADDB7FDC811101DC002309F4B9CEFDDB72
:100DB00054CE112309F447CE2EE030E049E050E054
:100DC000BE01615E7F4FCE010196F4D4CE01019643
:100DD0004AD56B017C01CE010196BCD321E130E004
:100DE0004EE050E0BE01615E7F4FCE010196E2D43D
:100DF000CE01019638D5CE010196ACD326E130E084
:100E000041E150E0BE01615E7F4FCE010196D2D438
:100E1000CE01019628D5CE0101969CD3113009F45C
:100E2000BBC02AE030E0B701A6018FEE90E081D38D
:100E3000412C512C32014C145D046E047F0408F0E7
:100E4000A8CF61EE70E0CE010796ECD360E470E0CD
:100E5000CE010796ADD301E08FEE90E0A2D0892BB2
:100E600009F06EC00111F8CF22E030E050E040E020
:100E7000BE01695F7F4FCE0101969CD4CE010196E1
:100E8000F2D46DA77EA78FA798ABCE01019662D34F
:100E900027E030E042E050E0BE01695F7F4FCE01C5
:100EA000019688D4CE010196DED4CE01019652D3AC
:100EB00047E050E0812C912C5401CA0103969CA775
:100EC0008BA79C01BE01695F7F4FCE01019672D452
:100ED000CE010196C8D4062FCE0101963BD3003136
:100EE00038F44AE050E070E060E08FEE90E0F9D234
:100EF00040E150E0602F8FEE90E005D39FEF891A1C
:100F0000990AA90AB90A4BA55CA58DA59EA5AFA50E
:100F1000B8A988159905AA05BB0579F62AE030E03D
:100F2000B701A6018FEE90E004D3CE01079612D34D
:100F300092E0490E511C611C711C7DCF00E08CCFEA
:100F40008FEE90E048D08A30C9F3682FCE01079623
:100F500003D482CFAD9A86E028E095B3922795BB63
:100F6000BFEFE4E3FCE0B150E040F040E1F700C047
:100F70000000815091F7AD98D3CD33DA8091E20033
:100F800095DA56DA12DB332009F45DCD06CF29DA83
:100F90008091E3009FDAF5CF332009F4C1CD00E062
:100FA00014CDFC01918D228D892F90E0805C9F4FA4
:100FB000821B91098F7399270895FC01918D828D71
:100FC000981731F0828DE80FF11D858D90E008951E
:100FD0008FEF9FEF0895FC01918D828D981761F03E
:100FE000A28DAE0FBF2FB11D5D968C91928D9F5F2C
:100FF0009F73928F90E008958FEF9FEF0895FC010B
:10100000A48DA80FB92FB11DA35ABF4F2C91848D69
:1010100090E001968F739927848FA689B7892C93C6
:10102000A089B1898C9180648C93938D848D981361
:1010300006C00288F389E02D80818F7D808308952A
:10104000CF93DF93EC01888D8823B1F0AA89BB8907
:10105000E889F9898C9185FD03C0808186FD0CC0EB
:101060000FB607FCF7CF8C9185FFF2CF808185FF0B
:10107000EDCFCE01C4DFEACFDF91CF910895EF929B
:10108000FF920F931F93CF93DF93EC0181E0888F42
:101090009B8D8C8D981316C0E889F989808185FF16
:1010A00011C0EE89FF896083E889F98980818064B5
:1010B000808381E090E0DF91CF911F910F91FF90AD
:1010C000EF900895F62E0B8D10E00F5F1F4F0F73FA
:1010D0001127E02E8C8D8E110BC00FB607FCFACFB6
:1010E000E889F989808185FFF5CFCE0188DFF2CFCD
:1010F000EB8DEC0FFD2FF11DE35AFF4FF0820B8FAC
:10110000EA89FB8980818062D3CFCF92DF92EF9210
:10111000FF921F93CF93DF93EC016A017B01122FA3
:1011200060E874E88EE190E0A7019601A6D3215013
:101130003109410951095695479537952795E88911
:10114000F98982E08083211580E1380790F0E889F1
:10115000F989108260E472E48FE090E0A7019601C3
:101160008CD321503109410951095695479537953E
:101170002795EC85FD853083EE85FF852083188ECD
:101180001068EC89FD891083EA89FB898081806180
:101190008083EA89FB89808188608083EA89FB8972
:1011A000808180688083EA89FB8980818F7D80834C
:1011B000DF91CF911F91FF90EF90DF90CF90089536
:1011C0001F920F920FB60F9211242F938F939F931C
:1011D000EF93FF93E091FF00F09100018081E09197
:1011E0000501F091060182FD1BC0908180910801EC
:1011F0008F5F8F7320910901821741F0E091080100
:10120000F0E0E151FF4F958F80930801FF91EF913E
:101210009F918F912F910F900FBE0F901F90189557
:101220008081F4CF1F920F920FB60F9211242F934B
:101230003F934F935F936F937F938F939F93AF935E
:10124000BF93EF93FF938FEE90E0D9DEFF91EF9184
:10125000BF91AF919F918F917F916F915F914F91CE
:101260003F912F910F900FBE0F901F901895EFEEAA
:10127000F0E01382128288EE93E0A0E0B0E0848375
:101280009583A683B78383ED90E09183808380E488
:1012900090E09587848729E230E0378726872BE224
:1012A00030E0318B208B2AE230E0338B228B958B20
:1012B000848B8CE290E0978B868B118E128E138E2E
:1012C000148E0895AF92BF92CF92DF92EF92FF9269
:1012D0000F931F93CF93DF936C017B018B01040F5E
:1012E000151FEB015E01AE18BF08C017D10759F0FA
:1012F0006991D601ED91FC910190F081E02DC6013C
:101300000995892B79F7C501DF91CF911F910F9135
:10131000FF90EF90DF90CF90BF90AF900895FB01CA
:1013200001900020E9F73197AF01461B570BDC0114
:10133000ED91FC910280F381E02D0994DB0114967C
:101340004D915C9115976D917C91DC01ED91FC9133
:101350000280F381E02D09946115710509F0DFCF5A
:1013600090E080E00895DC01ED91FC910190F08126
:10137000E02D09946FED70E0D2CF0F931F93CF93C0
:10138000DF93EC01DBDF8C01CE01F4DF800F911FD6
:10139000DF91CF911F910F9108950F931F93CF93DA
:1013A000DF938C01D0E0C0E06115710511F0B7DF6B
:1013B000EC01C801DFDF8C0F9D1FDF91CF911F91E2
:1013C0000F9108958F929F92AF92BF92EF92FF92EA
:1013D0000F931F93CF93DF93CDB7DEB7A1970FB6CF
:1013E000F894DEBF0FBECDBF7C01FA01CB0119A27C
:1013F000223008F42AE08E010F5D1F4F822E912CBF
:10140000B12CA12CBF01A501940137D2F901CA0169
:101410006A3004F5605DD8016E938D01232B242B77
:10142000252B81F790E080E0109719F0BD01C701EE
:1014300076DFA1960FB6F894DEBF0FBECDBFDF9169
:10144000CF911F910F91FF90EF90BF90AF909F9021
:101450008F900895695CDFCFCF92DF92EF92FF9279
:101460000F931F93CF93DF932115310581F4DC0196
:10147000ED91FC910190F081E02D642FDF91CF91EF
:101480001F910F91FF90EF90DF90CF9009942A3039
:101490003105F1F42AE077FF1BC06A017B01EC0102
:1014A0006DE261DF8C0144275527BA014C195D09B3
:1014B0006E097F092AE0CE0185DF800F911FDF9141
:1014C000CF911F910F91FF90EF90DF90CF900895F3
:1014D000DF91CF911F910F91FF90EF90DF90CF9010
:1014E00071CF9A01AB01770F660B770BB5CF211542
:1014F000310541F4DC01ED91FC910190F081E02D8A
:10150000642F09945FCF9A01462F50E070E060E0AD
:10151000EECF0F931F93CF93DF93EC01F4DF8C0199
:10152000CE0128DF800F911FDF91CF911F910F9186
:1015300008950F931F93CF93DF93EC01D8DF8C01B5
:10154000CE0118DF800F911FDF91CF911F910F9176
:1015500008950895FC018081918153C2CF93DF9358
:10156000EC0188819981009709F04BD21982188289
:101570001D821C821B821A82DF91CF9108950F93E6
:101580001F93CF93DF93EC018B016F5F7F4F8881B7
:101590009981C0D2009751F0998388831B830A8375
:1015A00081E0DF91CF911F910F91089580E0F9CFF5
:1015B000CF93DF93EC0188819981892B49F08A814F
:1015C0009B818617970720F081E0DF91CF910895E6
:1015D000CE01D5DF8823C9F38C819D81892BA1F7AA
:1015E000E881F9811082F0CFEF92FF920F931F9361
:1015F000CF93DF93EC017B018A01BA01D9DF81111E
:101600000AC0CE01ABDFCE01DF91CF911F910F91C8
:10161000FF90EF9008951D830C83B7018881998115
:101620006FD3F1CFFC0111821082138212821582D6
:1016300014826115710549F0FB0101900020E9F762
:101640003197AF01461B570BCFCF0895FB01019097
:101650000020E9F73197AF01461B570BC5CF0F9319
:101660001F93CF93DF938C01EB01FC01808191816B
:101670000097F1F06881798161157105C1F029EA5F
:101680003AE0232BA1F0428153812C813D81421706
:10169000530768F035D38C819D81F801958384834D
:1016A0001D821C82DF91CF911F910F910895A9D1C6
:1016B00088819981F801918380838A819B819383BA
:1016C00082838C819D8195838483198218821B82F9
:1016D0001A82E6CFCF93DF93EC018617970709F0C4
:1016E000BEDFCE01DF91CF910895CF93DF93EC0160
:1016F0006115710529F0AADFCE01DF91CF91089520
:101700002DDFFACFEF92FF920F931F93CF93DF93CA
:101710006115710541F480E0DF91CF911F910F9128
:10172000FF90EF90089541155105A1F07B01EC0168
:101730000C811D81040F151FB8013ADF882359F36E
:10174000288139818C819D81B701820F931FD8D266
:101750001D830C8381E0E0CFCF93DF9300D0CDB722
:10176000DEB769831A8241E050E0BE016F5F7F4FB0
:10177000C9DF0F900F90DF91CF910895FC01248174
:101780003581232B31F421E0FB01672B49F4822FB3
:101790000895808191816115710539F421E0FC0182
:1017A00080818823A1F320E0F2CFA1D221E0892B10
:1017B00071F3F9CFAF92BF92CF92DF92EF92FF9287
:1017C0000F931F93CF93DF935C016B017A01890123
:1017D0002417350720F48F2D7901042F182F61EE7F
:1017E00070E0C5011FDFD6011496CD91DC91EC1697
:1017F000FD06C0F40C171D0708F4E801D601ED91B1
:10180000FC911197EC0FFD1F108110826D917C915E
:101810006E0D7F1DC50169DFF60180819181C80FC2
:10182000D91F1883C501DF91CF911F910F91FF90B0
:10183000EF90DF90CF90BF90AF900895CF93DF935C
:10184000FC01C081D181209759F08991882341F012
:10185000082E000C990B3AD2FE0131978083F5CF08
:10186000DF91CF910895FC0180819181009709F06B
:1018700007C260E070E0CB010895A1E21A2EAA1B16
:10188000BB1BFD010DC0AA1FBB1FEE1FFF1FA21730
:10189000B307E407F50720F0A21BB30BE40BF50B2D
:1018A000661F771F881F991F1A9469F760957095B6
:1018B000809590959B01AC01BD01CF010895EE0F7D
:1018C000FF1F0590F491E02D09940F931F93CF9380
:1018D000DF938230910510F482E090E0E0918E0178
:1018E000F0918F0130E020E0B0E0A0E0309799F473
:1018F0002115310509F44AC0281B390B2430310564
:10190000D8F58A819B816115710589F1FB0193836B
:101910008283FE0111C040815181028113814817E9
:101920005907E0F04817590799F4109761F012969B
:101930000C93129713961C933296CF01DF91CF919F
:101940001F910F91089500938E0110938F01F4CF92
:101950002115310551F04217530738F0A901DB0179
:101960009A01BD01DF01F801C1CFEF01F9CF9093DA
:101970008F0180938E01CDCFFE01E20FF31F819383
:1019800091932250310939832883D7CF20918C013C
:1019900030918D01232B41F420916200309163003E
:1019A00030938D0120938C01209160003091610073
:1019B0002115310541F42DB73EB740916400509197
:1019C0006500241B350BE0918C01F0918D01E2172D
:1019D000F307A0F42E1B3F0B2817390778F0AC0152
:1019E0004E5F5F4F2417350748F04E0F5F1F50932F
:1019F0008D0140938C01819391939FCFF0E0E0E0C3
:101A00009CCFCF93DF930097E9F0FC0132971382CC
:101A10001282A0918E01B0918F01ED0130E020E0A3
:101A20001097A1F420813181820F931F20918C01A6
:101A300030918D012817390709F061C0F0938D01AD
:101A4000E0938C01DF91CF910895EA01CE17DF0773
:101A5000E8F54A815B819E0141155105B1F7E90125
:101A6000FB83EA8349915991C40FD51FEC17FD07F9
:101A700061F4808191810296840F951FE901998319
:101A80008883828193819B838A83F0E0E0E01296D1
:101A90008D919C9113970097B9F52D913C911197D9
:101AA000CD010296820F931F20918C0130918D0100
:101AB0002817390739F6309751F510928F01109297
:101AC0008E01B0938D01A0938C01BCCFD383C283D0
:101AD00040815181840F951FC817D90761F44E5F6B
:101AE0005F4F88819981480F591F518340838A81B4
:101AF0009B81938382832115310509F0B0CFF09348
:101B00008F01E0938E019ECFFD01DC01C0CF1382D7
:101B10001282D7CFB0E0A0E0EFE8FDE00FC18C016A
:101B2000009741F4CB01D1DE8C01C801CDB7DEB7FF
:101B3000E0E120C1FC01E60FF71F9C0122503109B2
:101B4000E217F30708F499C0D901CD91DC91119700
:101B5000C617D70790F0C530D10538F3CE010497EA
:101B60008617970710F3C61BD70B2297C193D19303
:101B70006D937C93CF0145DFD8CF5B01AC1ABD0AD2
:101B80004C018C0E9D1EA0918E01B0918F01512CA5
:101B9000412CF12CE12C109731F580918C01909122
:101BA0008D018815990509F05CC04616570608F0A6
:101BB00058C08091600090916100009741F48DB70A
:101BC0009EB74091640050916500841B950BE81707
:101BD000F90708F052C0F0938D01E0938C01F901F0
:101BE00071836083A2CF8D919C91119712966C9016
:101BF000129713967C901397A815B90559F56C01A7
:101C000042E0C40ED11CCA14DB0420F1AC014A1915
:101C10005B09DA011296159780F062827382518314
:101C20004083D9016D937C93E114F10471F0D701E5
:101C30001396FC93EE93129778CF22968C0F9D1FEC
:101C4000F90191838083F301EFCFF0938F01E0934B
:101C50008E016BCF4816590608F42C017D01D30183
:101C60009ACFCB0132DE7C01009739F0AE01B8018A
:101C700035D0C801C6DE870158CF10E000E055CF4F
:101C80001F93FC0199278827BC01E8941191103219
:101C9000E9F3193010F01E30C8F31B3249F01D3241
:101CA00041F4689405C033D0610F711D811D911DF1
:101CB000119110531A30B8F33EF4909580957095B9
:101CC00061957F4F8F4F9F4F1F91089591110895F8
:101CD00081568A5108F4805285580895FB01DC0131
:101CE00002C001900D9241505040D8F70895FB0179
:101CF000DC018D91019080190110D9F3990B0895A1
:101D0000FB01DC0101900D920020E1F70895592FAD
:101D1000482F372F262F660F771F881F991F660FB2
:101D2000771F881F991F620F731F841F951F660FEF
:101D3000771F881F991F08952F923F924F925F92AD
:101D40006F927F928F929F92AF92BF92CF92DF92CB
:101D5000EF92FF920F931F93CF93DF93CDB7DEB730
:101D6000CA1BDB0B0FB6F894DEBF0FBECDBF0994C4
:101D70002A88398848885F846E847D848C849B841B
:101D8000AA84B984C884DF80EE80FD800C811B8129
:101D9000AA81B981CE0FD11D0FB6F894DEBF0FBE58
:0A1DA000CDBFED010895F894FFCFC8
:101DAA000000900180003E3E506F776572204F6EB2
:101DBA00003E3E003E3E2B666374727374004856C2
:101DCA0050500048565350002B474554534947003A
:101DDA00303030303030002B464354525354002BAD
:101DEA004D4158434C4B002B525354444953002BFA
:101DFA004C434B424954002B455243484950002B0F
:101E0A005244464C5348002B5752464C5348000004
:101E1A000000003F086209D107EB07DD0720080D23
:021E2A000A00AC
:00000001FF
